{
  "contractName": "DogsUpdated",
  "abi": [
    {
      "inputs": [],
      "stateMutability": "nonpayable",
      "type": "constructor"
    },
    {
      "inputs": [],
      "name": "_initialized",
      "outputs": [
        {
          "internalType": "bool",
          "name": "",
          "type": "bool"
        }
      ],
      "stateMutability": "view",
      "type": "function",
      "constant": true
    },
    {
      "inputs": [],
      "name": "owner",
      "outputs": [
        {
          "internalType": "address",
          "name": "",
          "type": "address"
        }
      ],
      "stateMutability": "view",
      "type": "function",
      "constant": true
    },
    {
      "inputs": [
        {
          "internalType": "uint256",
          "name": "toSet",
          "type": "uint256"
        }
      ],
      "name": "setNumberOfDogs",
      "outputs": [],
      "stateMutability": "nonpayable",
      "type": "function"
    },
    {
      "inputs": [],
      "name": "getNumberOfDogs",
      "outputs": [
        {
          "internalType": "uint256",
          "name": "",
          "type": "uint256"
        }
      ],
      "stateMutability": "view",
      "type": "function",
      "constant": true
    }
  ],
  "bytecode": "0x608060405234801561001057600080fd5b5033600560006101000a81548173ffffffffffffffffffffffffffffffffffffffff021916908373ffffffffffffffffffffffffffffffffffffffff160217905550610367806100616000396000f3fe608060405234801561001057600080fd5b506004361061004c5760003560e01c806314861b22146100515780631680a5ed1461006d5780633072cf601461008b5780638da5cb5b146100a9575b600080fd5b61006b600480360381019061006691906101dc565b6100c7565b005b610075610145565b6040516100829190610218565b60405180910390f35b610093610168565b6040516100a0919061024e565b60405180910390f35b6100b161017b565b6040516100be91906102aa565b60405180910390f35b600560009054906101000a900473ffffffffffffffffffffffffffffffffffffffff1673ffffffffffffffffffffffffffffffffffffffff163373ffffffffffffffffffffffffffffffffffffffff161461012157600080fd5b8060006040516101309061031c565b90815260200160405180910390208190555050565b6000806040516101549061031c565b908152602001604051809103902054905090565b600560149054906101000a900460ff1681565b600560009054906101000a900473ffffffffffffffffffffffffffffffffffffffff1681565b600080fd5b6000819050919050565b6101b9816101a6565b81146101c457600080fd5b50565b6000813590506101d6816101b0565b92915050565b6000602082840312156101f2576101f16101a1565b5b6000610200848285016101c7565b91505092915050565b610212816101a6565b82525050565b600060208201905061022d6000830184610209565b92915050565b60008115159050919050565b61024881610233565b82525050565b6000602082019050610263600083018461023f565b92915050565b600073ffffffffffffffffffffffffffffffffffffffff82169050919050565b600061029482610269565b9050919050565b6102a481610289565b82525050565b60006020820190506102bf600083018461029b565b92915050565b600081905092915050565b7f446f677300000000000000000000000000000000000000000000000000000000600082015250565b60006103066004836102c5565b9150610311826102d0565b600482019050919050565b6000610327826102f9565b915081905091905056fea264697066735822122076aa3e0f9c5c9101b1d344c9af8cd5b6898705cecee8d9d93db59543ecd5f10264736f6c63430008090033",
  "immutableReferences": {},
  "source": "// SPDX-License-Identifier: Unlicensed\r\npragma solidity ^0.8.6;\r\n\r\nimport \"./Storage.sol\";\r\n\r\n//Update Dogs contract to add onlyOwner functionality to setNumberOfDogs function\r\ncontract DogsUpdated is Storage {\r\n\r\n    constructor() {\r\n        owner = msg.sender;\r\n    }\r\n\r\n    function setNumberOfDogs(uint256 toSet) public onlyOwner{\r\n        _uintStorage[\"Dogs\"] = toSet;\r\n    }\r\n\r\n    function getNumberOfDogs() public view returns(uint256) {\r\n        return _uintStorage[\"Dogs\"];\r\n    }\r\n}",
  "sourcePath": "C:\\Users\\zjh90_000\\Desktop\\IoT\\Truffle\\ProxyContract\\contracts\\DogsUpdated.sol",
  "compiler": {
    "name": "solc",
    "version": "0.8.9+commit.e5eed63a.Emscripten.clang"
  },
  "schemaVersion": "3.4.3",
  "updatedAt": "2021-09-29T17:35:00.497Z",
  "networkType": "ethereum",
  "devdoc": {
    "kind": "dev",
    "methods": {},
    "version": 1
  },
  "userdoc": {
    "kind": "user",
    "methods": {},
    "version": 1
  }
}