{
  "contractName": "Proxy",
  "abi": [
    {
      "inputs": [
        {
          "internalType": "address",
          "name": "_currentFuncAddress",
          "type": "address"
        }
      ],
      "stateMutability": "nonpayable",
      "type": "constructor"
    },
    {
      "stateMutability": "payable",
      "type": "fallback",
      "payable": true
    },
    {
      "inputs": [],
      "name": "_initialized",
      "outputs": [
        {
          "internalType": "bool",
          "name": "",
          "type": "bool"
        }
      ],
      "stateMutability": "view",
      "type": "function",
      "constant": true
    },
    {
      "inputs": [],
      "name": "owner",
      "outputs": [
        {
          "internalType": "address",
          "name": "",
          "type": "address"
        }
      ],
      "stateMutability": "view",
      "type": "function",
      "constant": true
    },
    {
      "inputs": [
        {
          "internalType": "address",
          "name": "_newFuncAddress",
          "type": "address"
        }
      ],
      "name": "upgrade",
      "outputs": [],
      "stateMutability": "nonpayable",
      "type": "function"
    }
  ],
  "bytecode": "0x608060405234801561001057600080fd5b506040516105003803806105008339818101604052810190610032919061011d565b80600660006101000a81548173ffffffffffffffffffffffffffffffffffffffff021916908373ffffffffffffffffffffffffffffffffffffffff16021790555033600560006101000a81548173ffffffffffffffffffffffffffffffffffffffff021916908373ffffffffffffffffffffffffffffffffffffffff1602179055505061014a565b600080fd5b600073ffffffffffffffffffffffffffffffffffffffff82169050919050565b60006100ea826100bf565b9050919050565b6100fa816100df565b811461010557600080fd5b50565b600081519050610117816100f1565b92915050565b600060208284031215610133576101326100ba565b5b600061014184828501610108565b91505092915050565b6103a7806101596000396000f3fe6080604052600436106100385760003560e01c80630900f0101461012b5780633072cf60146101545780638da5cb5b1461017f57610039565b5b6000600660009054906101000a900473ffffffffffffffffffffffffffffffffffffffff169050600073ffffffffffffffffffffffffffffffffffffffff16600660009054906101000a900473ffffffffffffffffffffffffffffffffffffffff1673ffffffffffffffffffffffffffffffffffffffff1614156100bc57600080fd5b600080368080601f016020809104026020016040519081016040528093929190818152602001838380828437600081840152601f19601f820116905080830192505050505050509050600080825160208401855af43d604051816000823e8260008114610127578282f35b8282fd5b34801561013757600080fd5b50610152600480360381019061014d91906102e4565b6101aa565b005b34801561016057600080fd5b50610169610248565b604051610176919061032c565b60405180910390f35b34801561018b57600080fd5b5061019461025b565b6040516101a19190610356565b60405180910390f35b600560009054906101000a900473ffffffffffffffffffffffffffffffffffffffff1673ffffffffffffffffffffffffffffffffffffffff163373ffffffffffffffffffffffffffffffffffffffff161461020457600080fd5b80600660006101000a81548173ffffffffffffffffffffffffffffffffffffffff021916908373ffffffffffffffffffffffffffffffffffffffff16021790555050565b600560149054906101000a900460ff1681565b600560009054906101000a900473ffffffffffffffffffffffffffffffffffffffff1681565b600080fd5b600073ffffffffffffffffffffffffffffffffffffffff82169050919050565b60006102b182610286565b9050919050565b6102c1816102a6565b81146102cc57600080fd5b50565b6000813590506102de816102b8565b92915050565b6000602082840312156102fa576102f9610281565b5b6000610308848285016102cf565b91505092915050565b60008115159050919050565b61032681610311565b82525050565b6000602082019050610341600083018461031d565b92915050565b610350816102a6565b82525050565b600060208201905061036b6000830184610347565b9291505056fea26469706673582212205f286c168a3195bf017edd04e5f244f49dd9b37b3fcff437598a59390a52d56564736f6c63430008090033",
  "immutableReferences": {},
  "source": "// SPDX-License-Identifier: Unlicensed\r\npragma solidity ^0.8.6;\r\n\r\nimport \"./Storage.sol\";\r\n\r\ncontract Proxy is Storage {\r\n\r\n    address currentFuncAddress;\r\n\r\n    //deploy contract with pointer to current functionality contract and set owner of proxy contract\r\n    constructor(address _currentFuncAddress) {\r\n        currentFuncAddress = _currentFuncAddress;\r\n        owner = msg.sender;\r\n    }\r\n\r\n    //update pointer address to new functionality contract\r\n    function upgrade(address _newFuncAddress) public onlyOwner{\r\n        currentFuncAddress = _newFuncAddress;\r\n    }\r\n\r\n    //fallback function\r\n    fallback() payable external {\r\n        \r\n        //redirect to currentAddress\r\n        address implementation = currentFuncAddress;\r\n        require(currentFuncAddress != address(0));\r\n        bytes memory data = msg.data;\r\n\r\n        //delegate call every function call\r\n        assembly {\r\n            let result := delegatecall(gas(), implementation, add(data, 0x20), mload(data), 0, 0)\r\n            let size := returndatasize()\r\n            let ptr := mload(0x40)\r\n            returndatacopy(ptr, 0, size)\r\n            switch result\r\n            case 0 {revert(ptr, size)}\r\n            default {return(ptr,size)}\r\n        }\r\n    }\r\n\r\n}",
  "sourcePath": "C:\\Users\\zjh90_000\\Desktop\\IoT\\Truffle\\ProxyContract\\contracts\\Proxy.sol",
  "compiler": {
    "name": "solc",
    "version": "0.8.9+commit.e5eed63a.Emscripten.clang"
  },
  "schemaVersion": "3.4.3",
  "updatedAt": "2021-09-29T17:35:00.514Z",
  "networkType": "ethereum",
  "devdoc": {
    "kind": "dev",
    "methods": {},
    "version": 1
  },
  "userdoc": {
    "kind": "user",
    "methods": {},
    "version": 1
  }
}